{
  "contractName": "CourseMarketplace",
  "abi": [
    {
      "inputs": [],
      "stateMutability": "nonpayable",
      "type": "constructor"
    },
    {
      "inputs": [],
      "name": "isStoped",
      "outputs": [
        {
          "internalType": "bool",
          "name": "",
          "type": "bool"
        }
      ],
      "stateMutability": "view",
      "type": "function",
      "constant": true
    },
    {
      "stateMutability": "payable",
      "type": "receive",
      "payable": true
    },
    {
      "inputs": [
        {
          "internalType": "uint256",
          "name": "_amount",
          "type": "uint256"
        }
      ],
      "name": "withdraw",
      "outputs": [],
      "stateMutability": "nonpayable",
      "type": "function"
    },
    {
      "inputs": [],
      "name": "emergencyWithdraw",
      "outputs": [],
      "stateMutability": "nonpayable",
      "type": "function"
    },
    {
      "inputs": [],
      "name": "selfDestruct",
      "outputs": [],
      "stateMutability": "nonpayable",
      "type": "function"
    },
    {
      "inputs": [],
      "name": "stopContract",
      "outputs": [],
      "stateMutability": "nonpayable",
      "type": "function"
    },
    {
      "inputs": [],
      "name": "startContract",
      "outputs": [],
      "stateMutability": "nonpayable",
      "type": "function"
    },
    {
      "inputs": [
        {
          "internalType": "bytes16",
          "name": "_courseId",
          "type": "bytes16"
        },
        {
          "internalType": "bytes32",
          "name": "_proof",
          "type": "bytes32"
        }
      ],
      "name": "purchaseCourse",
      "outputs": [],
      "stateMutability": "payable",
      "type": "function",
      "payable": true
    },
    {
      "inputs": [
        {
          "internalType": "bytes32",
          "name": "_courseHash",
          "type": "bytes32"
        }
      ],
      "name": "repurchaseCourse",
      "outputs": [],
      "stateMutability": "payable",
      "type": "function",
      "payable": true
    },
    {
      "inputs": [
        {
          "internalType": "bytes32",
          "name": "_courseHash",
          "type": "bytes32"
        }
      ],
      "name": "activateCourse",
      "outputs": [],
      "stateMutability": "nonpayable",
      "type": "function"
    },
    {
      "inputs": [
        {
          "internalType": "bytes32",
          "name": "_courseHash",
          "type": "bytes32"
        }
      ],
      "name": "deactivateCourse",
      "outputs": [],
      "stateMutability": "nonpayable",
      "type": "function"
    },
    {
      "inputs": [
        {
          "internalType": "address",
          "name": "_newOwner",
          "type": "address"
        }
      ],
      "name": "transferOwnership",
      "outputs": [],
      "stateMutability": "nonpayable",
      "type": "function"
    },
    {
      "inputs": [],
      "name": "getCourseCount",
      "outputs": [
        {
          "internalType": "uint256",
          "name": "",
          "type": "uint256"
        }
      ],
      "stateMutability": "view",
      "type": "function",
      "constant": true
    },
    {
      "inputs": [
        {
          "internalType": "uint256",
          "name": "_idx",
          "type": "uint256"
        }
      ],
      "name": "getCourseByIdx",
      "outputs": [
        {
          "internalType": "bytes32",
          "name": "",
          "type": "bytes32"
        }
      ],
      "stateMutability": "view",
      "type": "function",
      "constant": true
    },
    {
      "inputs": [
        {
          "internalType": "bytes32",
          "name": "_hash",
          "type": "bytes32"
        }
      ],
      "name": "getCourseByHash",
      "outputs": [
        {
          "components": [
            {
              "internalType": "uint256",
              "name": "id",
              "type": "uint256"
            },
            {
              "internalType": "uint256",
              "name": "price",
              "type": "uint256"
            },
            {
              "internalType": "bytes32",
              "name": "proof",
              "type": "bytes32"
            },
            {
              "internalType": "address",
              "name": "owner",
              "type": "address"
            },
            {
              "internalType": "enum CourseMarketplace.State",
              "name": "state",
              "type": "uint8"
            }
          ],
          "internalType": "struct CourseMarketplace.Course",
          "name": "",
          "type": "tuple"
        }
      ],
      "stateMutability": "view",
      "type": "function",
      "constant": true
    },
    {
      "inputs": [],
      "name": "getContractOwner",
      "outputs": [
        {
          "internalType": "address",
          "name": "",
          "type": "address"
        }
      ],
      "stateMutability": "view",
      "type": "function",
      "constant": true
    }
  ],
  "bytecode": "0x60806040526000600160146101000a81548160ff02191690831515021790555034801561002b57600080fd5b5061003b3361004060201b60201c565b610084565b80600160006101000a81548173ffffffffffffffffffffffffffffffffffffffff021916908373ffffffffffffffffffffffffffffffffffffffff16021790555050565b611e0f806100936000396000f3fe6080604052600436106100ec5760003560e01c80636136e1eb1161008a5780639cb8a26a116100595780639cb8a26a146102b8578063d76821cb146102cf578063db2e21bc146102eb578063f2fde38b14610302576100f3565b80636136e1eb1461020b57806362e4e6ac14610227578063935d7e6d1461026457806396cfda061461028d576100f3565b80632fc97927116100c65780632fc979271461016357806339262572146101a0578063442890d5146101c95780635fb02f4d146101f4576100f3565b806312253a6c146100f8578063191797df1461010f5780632e1a7d4d1461013a576100f3565b366100f357005b600080fd5b34801561010457600080fd5b5061010d61032b565b005b34801561011b57600080fd5b506101246103d7565b6040516101319190611534565b60405180910390f35b34801561014657600080fd5b50610161600480360381019061015c919061158a565b6103ea565b005b34801561016f57600080fd5b5061018a6004803603810190610185919061158a565b61056d565b60405161019791906115d0565b60405180910390f35b3480156101ac57600080fd5b506101c760048036038101906101c29190611617565b61058a565b005b3480156101d557600080fd5b506101de6107f7565b6040516101eb9190611685565b60405180910390f35b34801561020057600080fd5b50610209610821565b005b61022560048036038101906102209190611617565b6108ce565b005b34801561023357600080fd5b5061024e60048036038101906102499190611617565b610af1565b60405161025b91906117ac565b60405180910390f35b34801561027057600080fd5b5061028b60048036038101906102869190611617565b610bcd565b005b34801561029957600080fd5b506102a2610ee9565b6040516102af91906117d6565b60405180910390f35b3480156102c457600080fd5b506102cd610ef2565b005b6102e960048036038101906102e49190611849565b610fea565b005b3480156102f757600080fd5b506103006111e3565b005b34801561030e57600080fd5b50610329600480360381019061032491906118b5565b611371565b005b3373ffffffffffffffffffffffffffffffffffffffff16600160009054906101000a900473ffffffffffffffffffffffffffffffffffffffff1673ffffffffffffffffffffffffffffffffffffffff16146103bb576040517f08c379a00000000000000000000000000000000000000000000000000000000081526004016103b29061193f565b60405180910390fd5b60018060146101000a81548160ff021916908315150217905550565b600160149054906101000a900460ff1681565b3373ffffffffffffffffffffffffffffffffffffffff16600160009054906101000a900473ffffffffffffffffffffffffffffffffffffffff1673ffffffffffffffffffffffffffffffffffffffff161461047a576040517f08c379a00000000000000000000000000000000000000000000000000000000081526004016104719061193f565b60405180910390fd5b478111156104bd576040517f08c379a00000000000000000000000000000000000000000000000000000000081526004016104b4906119ab565b60405180910390fd5b60003373ffffffffffffffffffffffffffffffffffffffff16826040516104e3906119fc565b60006040518083038185875af1925050503d8060008114610520576040519150601f19603f3d011682016040523d82523d6000602084013e610525565b606091505b5050905080610569576040517f08c379a000000000000000000000000000000000000000000000000000000000815260040161056090611a5d565b60405180910390fd5b5050565b600060036000838152602001908152602001600020549050919050565b3373ffffffffffffffffffffffffffffffffffffffff16600160009054906101000a900473ffffffffffffffffffffffffffffffffffffffff1673ffffffffffffffffffffffffffffffffffffffff161461061a576040517f08c379a00000000000000000000000000000000000000000000000000000000081526004016106119061193f565b60405180910390fd5b600160149054906101000a900460ff161561066a576040517f08c379a000000000000000000000000000000000000000000000000000000000815260040161066190611ac9565b60405180910390fd5b6000600281111561067e5761067d6116cd565b5b6002600083815260200190815260200160002060030160149054906101000a900460ff1660028111156106b4576106b36116cd565b5b146106f4576040517f08c379a00000000000000000000000000000000000000000000000000000000081526004016106eb90611b35565b60405180910390fd5b600073ffffffffffffffffffffffffffffffffffffffff166002600083815260200190815260200160002060030160009054906101000a900473ffffffffffffffffffffffffffffffffffffffff1673ffffffffffffffffffffffffffffffffffffffff1603610799576040517f08c379a000000000000000000000000000000000000000000000000000000000815260040161079090611ba1565b60405180910390fd5b60016002600083815260200190815260200160002060030160146101000a81548160ff021916908360028111156107d3576107d26116cd565b5b02179055506000600260008381526020019081526020016000206001018190555050565b6000600160009054906101000a900473ffffffffffffffffffffffffffffffffffffffff16905090565b3373ffffffffffffffffffffffffffffffffffffffff16600160009054906101000a900473ffffffffffffffffffffffffffffffffffffffff1673ffffffffffffffffffffffffffffffffffffffff16146108b1576040517f08c379a00000000000000000000000000000000000000000000000000000000081526004016108a89061193f565b60405180910390fd5b6000600160146101000a81548160ff021916908315150217905550565b600160149054906101000a900460ff161561091e576040517f08c379a000000000000000000000000000000000000000000000000000000000815260040161091590611ac9565b60405180910390fd5b600073ffffffffffffffffffffffffffffffffffffffff166002600083815260200190815260200160002060030160009054906101000a900473ffffffffffffffffffffffffffffffffffffffff1673ffffffffffffffffffffffffffffffffffffffff16036109c3576040517f08c379a00000000000000000000000000000000000000000000000000000000081526004016109ba90611ba1565b60405180910390fd5b6109cc8161140d565b610a0b576040517f08c379a0000000000000000000000000000000000000000000000000000000008152600401610a0290611c0d565b60405180910390fd5b600280811115610a1e57610a1d6116cd565b5b6002600083815260200190815260200160002060030160149054906101000a900460ff166002811115610a5457610a536116cd565b5b14610a94576040517f08c379a0000000000000000000000000000000000000000000000000000000008152600401610a8b90611b35565b60405180910390fd5b60006002600083815260200190815260200160002060030160146101000a81548160ff02191690836002811115610ace57610acd6116cd565b5b021790555034600260008381526020019081526020016000206001018190555050565b610af96114bf565b600260008381526020019081526020016000206040518060a00160405290816000820154815260200160018201548152602001600282015481526020016003820160009054906101000a900473ffffffffffffffffffffffffffffffffffffffff1673ffffffffffffffffffffffffffffffffffffffff1673ffffffffffffffffffffffffffffffffffffffff1681526020016003820160149054906101000a900460ff166002811115610bb057610baf6116cd565b5b6002811115610bc257610bc16116cd565b5b815250509050919050565b3373ffffffffffffffffffffffffffffffffffffffff16600160009054906101000a900473ffffffffffffffffffffffffffffffffffffffff1673ffffffffffffffffffffffffffffffffffffffff1614610c5d576040517f08c379a0000000000000000000000000000000000000000000000000000000008152600401610c549061193f565b60405180910390fd5b600160149054906101000a900460ff1615610cad576040517f08c379a0000000000000000000000000000000000000000000000000000000008152600401610ca490611ac9565b60405180910390fd5b60006002811115610cc157610cc06116cd565b5b6002600083815260200190815260200160002060030160149054906101000a900460ff166002811115610cf757610cf66116cd565b5b14610d37576040517f08c379a0000000000000000000000000000000000000000000000000000000008152600401610d2e90611b35565b60405180910390fd5b600073ffffffffffffffffffffffffffffffffffffffff166002600083815260200190815260200160002060030160009054906101000a900473ffffffffffffffffffffffffffffffffffffffff1673ffffffffffffffffffffffffffffffffffffffff1603610ddc576040517f08c379a0000000000000000000000000000000000000000000000000000000008152600401610dd390611ba1565b60405180910390fd5b60006002600083815260200190815260200160002060030160009054906101000a900473ffffffffffffffffffffffffffffffffffffffff1690506000600260008481526020019081526020016000206001015490508173ffffffffffffffffffffffffffffffffffffffff166108fc829081150290604051600060405180830381858888f19350505050158015610e78573d6000803e3d6000fd5b50600280600085815260200190815260200160002060030160146101000a81548160ff02191690836002811115610eb257610eb16116cd565b5b021790555080600260008581526020019081526020016000206001016000828254610edd9190611c5c565b92505081905550505050565b60008054905090565b3373ffffffffffffffffffffffffffffffffffffffff16600160009054906101000a900473ffffffffffffffffffffffffffffffffffffffff1673ffffffffffffffffffffffffffffffffffffffff1614610f82576040517f08c379a0000000000000000000000000000000000000000000000000000000008152600401610f799061193f565b60405180910390fd5b600160149054906101000a900460ff16610fd1576040517f08c379a0000000000000000000000000000000000000000000000000000000008152600401610fc890611ac9565b60405180910390fd5b3373ffffffffffffffffffffffffffffffffffffffff16ff5b600160149054906101000a900460ff161561103a576040517f08c379a000000000000000000000000000000000000000000000000000000000815260040161103190611ac9565b60405180910390fd5b6000823360405160200161104f929190611cf9565b6040516020818303038152906040528051906020012090506110708161140d565b156110b0576040517f08c379a00000000000000000000000000000000000000000000000000000000081526004016110a790611d71565b60405180910390fd5b60008060008154809291906110c490611d91565b9190505590508160036000838152602001908152602001600020819055506040518060a001604052808281526020013481526020018481526020013373ffffffffffffffffffffffffffffffffffffffff1681526020016000600281111561112f5761112e6116cd565b5b8152506002600084815260200190815260200160002060008201518160000155602082015181600101556040820151816002015560608201518160030160006101000a81548173ffffffffffffffffffffffffffffffffffffffff021916908373ffffffffffffffffffffffffffffffffffffffff16021790555060808201518160030160146101000a81548160ff021916908360028111156111d5576111d46116cd565b5b021790555090505050505050565b3373ffffffffffffffffffffffffffffffffffffffff16600160009054906101000a900473ffffffffffffffffffffffffffffffffffffffff1673ffffffffffffffffffffffffffffffffffffffff1614611273576040517f08c379a000000000000000000000000000000000000000000000000000000000815260040161126a9061193f565b60405180910390fd5b600160149054906101000a900460ff166112c2576040517f08c379a00000000000000000000000000000000000000000000000000000000081526004016112b990611ac9565b60405180910390fd5b60003373ffffffffffffffffffffffffffffffffffffffff16476040516112e8906119fc565b60006040518083038185875af1925050503d8060008114611325576040519150601f19603f3d011682016040523d82523d6000602084013e61132a565b606091505b505090508061136e576040517f08c379a000000000000000000000000000000000000000000000000000000000815260040161136590611a5d565b60405180910390fd5b50565b3373ffffffffffffffffffffffffffffffffffffffff16600160009054906101000a900473ffffffffffffffffffffffffffffffffffffffff1673ffffffffffffffffffffffffffffffffffffffff1614611401576040517f08c379a00000000000000000000000000000000000000000000000000000000081526004016113f89061193f565b60405180910390fd5b61140a8161147b565b50565b60003373ffffffffffffffffffffffffffffffffffffffff166002600084815260200190815260200160002060030160009054906101000a900473ffffffffffffffffffffffffffffffffffffffff1673ffffffffffffffffffffffffffffffffffffffff16149050919050565b80600160006101000a81548173ffffffffffffffffffffffffffffffffffffffff021916908373ffffffffffffffffffffffffffffffffffffffff16021790555050565b6040518060a00160405280600081526020016000815260200160008019168152602001600073ffffffffffffffffffffffffffffffffffffffff16815260200160006002811115611513576115126116cd565b5b81525090565b60008115159050919050565b61152e81611519565b82525050565b60006020820190506115496000830184611525565b92915050565b600080fd5b6000819050919050565b61156781611554565b811461157257600080fd5b50565b6000813590506115848161155e565b92915050565b6000602082840312156115a05761159f61154f565b5b60006115ae84828501611575565b91505092915050565b6000819050919050565b6115ca816115b7565b82525050565b60006020820190506115e560008301846115c1565b92915050565b6115f4816115b7565b81146115ff57600080fd5b50565b600081359050611611816115eb565b92915050565b60006020828403121561162d5761162c61154f565b5b600061163b84828501611602565b91505092915050565b600073ffffffffffffffffffffffffffffffffffffffff82169050919050565b600061166f82611644565b9050919050565b61167f81611664565b82525050565b600060208201905061169a6000830184611676565b92915050565b6116a981611554565b82525050565b6116b8816115b7565b82525050565b6116c781611664565b82525050565b7f4e487b7100000000000000000000000000000000000000000000000000000000600052602160045260246000fd5b6003811061170d5761170c6116cd565b5b50565b600081905061171e826116fc565b919050565b600061172e82611710565b9050919050565b61173e81611723565b82525050565b60a08201600082015161175a60008501826116a0565b50602082015161176d60208501826116a0565b50604082015161178060408501826116af565b50606082015161179360608501826116be565b5060808201516117a66080850182611735565b50505050565b600060a0820190506117c16000830184611744565b92915050565b6117d081611554565b82525050565b60006020820190506117eb60008301846117c7565b92915050565b60007fffffffffffffffffffffffffffffffff0000000000000000000000000000000082169050919050565b611826816117f1565b811461183157600080fd5b50565b6000813590506118438161181d565b92915050565b600080604083850312156118605761185f61154f565b5b600061186e85828601611834565b925050602061187f85828601611602565b9150509250929050565b61189281611664565b811461189d57600080fd5b50565b6000813590506118af81611889565b92915050565b6000602082840312156118cb576118ca61154f565b5b60006118d9848285016118a0565b91505092915050565b600082825260208201905092915050565b7f596f7520617265206e6f7420746865206f776e65720000000000000000000000600082015250565b60006119296015836118e2565b9150611934826118f3565b602082019050919050565b600060208201905081810360008301526119588161191c565b9050919050565b7f496e73756666696369656e742062616c616e6365000000000000000000000000600082015250565b60006119956014836118e2565b91506119a08261195f565b602082019050919050565b600060208201905081810360008301526119c481611988565b9050919050565b600081905092915050565b50565b60006119e66000836119cb565b91506119f1826119d6565b600082019050919050565b6000611a07826119d9565b9150819050919050565b7f5472616e73666572206661696c65642e00000000000000000000000000000000600082015250565b6000611a476010836118e2565b9150611a5282611a11565b602082019050919050565b60006020820190508181036000830152611a7681611a3a565b9050919050565b7f436f6e74726163742069732073746f7070656400000000000000000000000000600082015250565b6000611ab36013836118e2565b9150611abe82611a7d565b602082019050919050565b60006020820190508181036000830152611ae281611aa6565b9050919050565b7f436f757273652068617320696e76616c69642073746174650000000000000000600082015250565b6000611b1f6018836118e2565b9150611b2a82611ae9565b602082019050919050565b60006020820190508181036000830152611b4e81611b12565b9050919050565b7f436f75727365206973206e6f7420637265617465640000000000000000000000600082015250565b6000611b8b6015836118e2565b9150611b9682611b55565b602082019050919050565b60006020820190508181036000830152611bba81611b7e565b9050919050565b7f596f7520646f206e6f74206f776e207468697320636f75727365000000000000600082015250565b6000611bf7601a836118e2565b9150611c0282611bc1565b602082019050919050565b60006020820190508181036000830152611c2681611bea565b9050919050565b7f4e487b7100000000000000000000000000000000000000000000000000000000600052601160045260246000fd5b6000611c6782611554565b9150611c7283611554565b925082821015611c8557611c84611c2d565b5b828203905092915050565b6000819050919050565b611cab611ca6826117f1565b611c90565b82525050565b60008160601b9050919050565b6000611cc982611cb1565b9050919050565b6000611cdb82611cbe565b9050919050565b611cf3611cee82611664565b611cd0565b82525050565b6000611d058285611c9a565b601082019150611d158284611ce2565b6014820191508190509392505050565b7f596f7520616c7265616479206f776e207468697320636f757273650000000000600082015250565b6000611d5b601b836118e2565b9150611d6682611d25565b602082019050919050565b60006020820190508181036000830152611d8a81611d4e565b9050919050565b6000611d9c82611554565b91507fffffffffffffffffffffffffffffffffffffffffffffffffffffffffffffffff8203611dce57611dcd611c2d565b5b60018201905091905056fea26469706673582212209a9c8a0206ce7ef9574e0c5fe38451f5dfdff2e0d7b7780edc61f0e84552e16f64736f6c634300080e0033",
  "immutableReferences": {},
  "source": "// SPDX-License-Identifier: MIT\npragma solidity >=0.4.22 <0.9.0;\n\ncontract CourseMarketplace {\n    uint256 private totalOwnedCourses;\n    address payable private owner;\n    bool public isStoped = false;\n\n    constructor() {\n        setContractOwner(msg.sender);\n    }\n\n    enum State {\n        Purchased,\n        Activated,\n        Deactivated\n    }\n\n    struct Course {\n        uint256 id; // 32 bytes\n        uint256 price; // 32 bytes\n        bytes32 proof; // 32 bytes\n        address owner; // 20 bytes\n        State state; // 1 byte\n    }\n\n    // 1. mapping of courses hashed to course details\n    mapping(bytes32 => Course) private ownedCourse;\n\n    // 2. mapping of courseId to courseHash\n    mapping(uint256 => bytes32) private ownedCourseHash;\n\n    modifier onlyOwner() {\n        require(owner == msg.sender, \"You are not the owner\");\n        _;\n    }\n\n    modifier contractActive() {\n        require(!isStoped, \"Contract is stopped\");\n        _;\n    }\n    \n    modifier contractNotActive() {\n        require(isStoped, \"Contract is stopped\");\n        _;\n    }\n\n    receive() external payable {}\n\n    function  withdraw(uint _amount) external onlyOwner {\n        require(_amount <= address(this).balance, \"Insufficient balance\");\n        (bool success, ) = payable(msg.sender).call{value: _amount}(\"\");\n        require(success, \"Transfer failed.\");            \n    }\n\n    function  emergencyWithdraw() external onlyOwner contractNotActive  {        \n        (bool success, ) = payable(msg.sender).call{value: address(this).balance}(\"\");\n        require(success, \"Transfer failed.\");            \n    }\n\n    function selfDestruct() external onlyOwner contractNotActive {\n        selfdestruct(payable(msg.sender));\n    }\n\n    function stopContract() external onlyOwner {\n        isStoped = true;\n    }\n\n    function startContract() external onlyOwner {\n        isStoped = false;\n    }\n\n    function purchaseCourse(bytes16 _courseId, bytes32 _proof)\n        external\n        payable\n        contractActive\n    {\n        bytes32 courseHash = keccak256(abi.encodePacked(_courseId, msg.sender));\n        require(!hasCourseOwnership(courseHash), \"You already own this course\");\n        uint256 id = totalOwnedCourses++;\n        ownedCourseHash[id] = courseHash;\n        ownedCourse[courseHash] = Course(\n            id,\n            msg.value,\n            _proof,\n            msg.sender,\n            State.Purchased\n        );\n    }\n\n    function repurchaseCourse(bytes32 _courseHash) external payable contractActive {\n        require(\n            ownedCourse[_courseHash].owner != address(0),\n            \"Course is not created\"\n        );\n        require(hasCourseOwnership(_courseHash), \"You do not own this course\");\n        require(\n            ownedCourse[_courseHash].state == State.Deactivated,\n            \"Course has invalid state\"\n        );\n\n        ownedCourse[_courseHash].state = State.Purchased;\n        ownedCourse[_courseHash].price = msg.value;\n    }\n\n    function activateCourse(bytes32 _courseHash) external onlyOwner contractActive {\n        require(\n            ownedCourse[_courseHash].state == State.Purchased,\n            \"Course has invalid state\"\n        );\n        require(\n            ownedCourse[_courseHash].owner != address(0),\n            \"Course is not created\"\n        );\n        ownedCourse[_courseHash].state = State.Activated;\n        ownedCourse[_courseHash].price = 0;\n    }\n\n    function deactivateCourse(bytes32 _courseHash) external onlyOwner contractActive {\n        require(\n            ownedCourse[_courseHash].state == State.Purchased,\n            \"Course has invalid state\"\n        );\n        require(\n            ownedCourse[_courseHash].owner != address(0),\n            \"Course is not created\"\n        );\n\n        address payable courseOwner = payable(ownedCourse[_courseHash].owner);\n        uint256 coursePrice = ownedCourse[_courseHash].price;\n        courseOwner.transfer(coursePrice);\n\n        ownedCourse[_courseHash].state = State.Deactivated;\n        ownedCourse[_courseHash].price -= coursePrice;\n    }\n\n    function transferOwnership(address _newOwner) external onlyOwner {\n        setContractOwner(_newOwner);\n    }\n\n    function getCourseCount() external view returns (uint256) {\n        return totalOwnedCourses;\n    }\n\n    function getCourseByIdx(uint256 _idx) external view returns (bytes32) {\n        return ownedCourseHash[_idx];\n    }\n\n    function getCourseByHash(bytes32 _hash)\n        external\n        view\n        returns (Course memory)\n    {\n        return ownedCourse[_hash];\n    }\n\n    function getContractOwner() public view returns (address) {\n        return owner;\n    }\n\n    function setContractOwner(address _newOwner) private {\n        owner = payable(_newOwner);\n    }\n\n    function hasCourseOwnership(bytes32 courseHash)\n        private\n        view\n        returns (bool)\n    {\n        return ownedCourse[courseHash].owner == msg.sender;\n    }\n}\n\n// TEST DATA\n// CourseId: 0x00000000000000000000000000003130\n// Address: 0x5B38Da6a701c568545dCfcB03FcB875f56beddC4s\n// Proof: 0x0000000000000000000000000000313000000000000000000000000000003130\n",
  "sourcePath": "/Users/danielancuta/Development/blockchain/truffle-nextjs-marketplace/market-next/contracts/CourseMarketplace.sol",
  "compiler": {
    "name": "solc",
    "version": "0.8.14+commit.80d49f37.Emscripten.clang"
  },
  "schemaVersion": "3.4.7",
  "updatedAt": "2023-03-14T18:35:26.008Z",
  "networkType": "ethereum",
  "devdoc": {
    "kind": "dev",
    "methods": {},
    "version": 1
  },
  "userdoc": {
    "kind": "user",
    "methods": {},
    "version": 1
  }
}