{
  "contractName": "CourseMarketplace",
  "abi": [
    {
      "inputs": [],
      "stateMutability": "nonpayable",
      "type": "constructor"
    },
    {
      "inputs": [
        {
          "internalType": "bytes16",
          "name": "_courseId",
          "type": "bytes16"
        },
        {
          "internalType": "bytes32",
          "name": "_proof",
          "type": "bytes32"
        }
      ],
      "name": "purchaseCourse",
      "outputs": [],
      "stateMutability": "payable",
      "type": "function"
    },
    {
      "inputs": [
        {
          "internalType": "address",
          "name": "_newOwner",
          "type": "address"
        }
      ],
      "name": "transferOwnership",
      "outputs": [],
      "stateMutability": "nonpayable",
      "type": "function"
    },
    {
      "inputs": [],
      "name": "getCourseCount",
      "outputs": [
        {
          "internalType": "uint256",
          "name": "",
          "type": "uint256"
        }
      ],
      "stateMutability": "view",
      "type": "function"
    },
    {
      "inputs": [
        {
          "internalType": "uint256",
          "name": "_id",
          "type": "uint256"
        }
      ],
      "name": "getCourseById",
      "outputs": [
        {
          "internalType": "bytes32",
          "name": "",
          "type": "bytes32"
        }
      ],
      "stateMutability": "view",
      "type": "function"
    },
    {
      "inputs": [
        {
          "internalType": "bytes32",
          "name": "_hash",
          "type": "bytes32"
        }
      ],
      "name": "getCourseByHash",
      "outputs": [
        {
          "components": [
            {
              "internalType": "uint256",
              "name": "id",
              "type": "uint256"
            },
            {
              "internalType": "uint256",
              "name": "price",
              "type": "uint256"
            },
            {
              "internalType": "bytes32",
              "name": "proof",
              "type": "bytes32"
            },
            {
              "internalType": "address",
              "name": "owner",
              "type": "address"
            },
            {
              "internalType": "enum CourseMarketplace.State",
              "name": "state",
              "type": "uint8"
            }
          ],
          "internalType": "struct CourseMarketplace.Course",
          "name": "",
          "type": "tuple"
        }
      ],
      "stateMutability": "view",
      "type": "function"
    },
    {
      "inputs": [],
      "name": "getContractOwner",
      "outputs": [
        {
          "internalType": "address",
          "name": "",
          "type": "address"
        }
      ],
      "stateMutability": "view",
      "type": "function"
    }
  ],
  "bytecode": "0x608060405234801561001057600080fd5b506100203361002560201b60201c565b610069565b80600160006101000a81548173ffffffffffffffffffffffffffffffffffffffff021916908373ffffffffffffffffffffffffffffffffffffffff16021790555050565b610baa806100786000396000f3fe6080604052600436106100555760003560e01c8063442890d51461005a57806362e4e6ac1461008557806396cfda06146100c2578063d76821cb146100ed578063ea5b210f14610109578063f2fde38b14610146575b600080fd5b34801561006657600080fd5b5061006f61016f565b60405161007c919061062d565b60405180910390f35b34801561009157600080fd5b506100ac60048036038101906100a79190610683565b610199565b6040516100b991906107c6565b60405180910390f35b3480156100ce57600080fd5b506100d7610275565b6040516100e491906107f0565b60405180910390f35b61010760048036038101906101029190610863565b61027e565b005b34801561011557600080fd5b50610130600480360381019061012b91906108cf565b610427565b60405161013d919061090b565b60405180910390f35b34801561015257600080fd5b5061016d60048036038101906101689190610952565b610444565b005b6000600160009054906101000a900473ffffffffffffffffffffffffffffffffffffffff16905090565b6101a1610592565b600260008381526020019081526020016000206040518060a00160405290816000820154815260200160018201548152602001600282015481526020016003820160009054906101000a900473ffffffffffffffffffffffffffffffffffffffff1673ffffffffffffffffffffffffffffffffffffffff1673ffffffffffffffffffffffffffffffffffffffff1681526020016003820160149054906101000a900460ff166002811115610258576102576106e7565b5b600281111561026a576102696106e7565b5b815250509050919050565b60008054905090565b600082336040516020016102939291906109e8565b6040516020818303038152906040528051906020012090506102b4816104e0565b156102f4576040517f08c379a00000000000000000000000000000000000000000000000000000000081526004016102eb90610a71565b60405180910390fd5b600080600081548092919061030890610ac0565b9190505590508160036000838152602001908152602001600020819055506040518060a001604052808281526020013481526020018481526020013373ffffffffffffffffffffffffffffffffffffffff16815260200160006002811115610373576103726106e7565b5b8152506002600084815260200190815260200160002060008201518160000155602082015181600101556040820151816002015560608201518160030160006101000a81548173ffffffffffffffffffffffffffffffffffffffff021916908373ffffffffffffffffffffffffffffffffffffffff16021790555060808201518160030160146101000a81548160ff02191690836002811115610419576104186106e7565b5b021790555090505050505050565b600060036000838152602001908152602001600020549050919050565b3373ffffffffffffffffffffffffffffffffffffffff16600160009054906101000a900473ffffffffffffffffffffffffffffffffffffffff1673ffffffffffffffffffffffffffffffffffffffff16146104d4576040517f08c379a00000000000000000000000000000000000000000000000000000000081526004016104cb90610b54565b60405180910390fd5b6104dd8161054e565b50565b60003373ffffffffffffffffffffffffffffffffffffffff166002600084815260200190815260200160002060030160009054906101000a900473ffffffffffffffffffffffffffffffffffffffff1673ffffffffffffffffffffffffffffffffffffffff16149050919050565b80600160006101000a81548173ffffffffffffffffffffffffffffffffffffffff021916908373ffffffffffffffffffffffffffffffffffffffff16021790555050565b6040518060a00160405280600081526020016000815260200160008019168152602001600073ffffffffffffffffffffffffffffffffffffffff168152602001600060028111156105e6576105e56106e7565b5b81525090565b600073ffffffffffffffffffffffffffffffffffffffff82169050919050565b6000610617826105ec565b9050919050565b6106278161060c565b82525050565b6000602082019050610642600083018461061e565b92915050565b600080fd5b6000819050919050565b6106608161064d565b811461066b57600080fd5b50565b60008135905061067d81610657565b92915050565b60006020828403121561069957610698610648565b5b60006106a78482850161066e565b91505092915050565b6000819050919050565b6106c3816106b0565b82525050565b6106d28161064d565b82525050565b6106e18161060c565b82525050565b7f4e487b7100000000000000000000000000000000000000000000000000000000600052602160045260246000fd5b60038110610727576107266106e7565b5b50565b600081905061073882610716565b919050565b60006107488261072a565b9050919050565b6107588161073d565b82525050565b60a08201600082015161077460008501826106ba565b50602082015161078760208501826106ba565b50604082015161079a60408501826106c9565b5060608201516107ad60608501826106d8565b5060808201516107c0608085018261074f565b50505050565b600060a0820190506107db600083018461075e565b92915050565b6107ea816106b0565b82525050565b600060208201905061080560008301846107e1565b92915050565b60007fffffffffffffffffffffffffffffffff0000000000000000000000000000000082169050919050565b6108408161080b565b811461084b57600080fd5b50565b60008135905061085d81610837565b92915050565b6000806040838503121561087a57610879610648565b5b60006108888582860161084e565b92505060206108998582860161066e565b9150509250929050565b6108ac816106b0565b81146108b757600080fd5b50565b6000813590506108c9816108a3565b92915050565b6000602082840312156108e5576108e4610648565b5b60006108f3848285016108ba565b91505092915050565b6109058161064d565b82525050565b600060208201905061092060008301846108fc565b92915050565b61092f8161060c565b811461093a57600080fd5b50565b60008135905061094c81610926565b92915050565b60006020828403121561096857610967610648565b5b60006109768482850161093d565b91505092915050565b6000819050919050565b61099a6109958261080b565b61097f565b82525050565b60008160601b9050919050565b60006109b8826109a0565b9050919050565b60006109ca826109ad565b9050919050565b6109e26109dd8261060c565b6109bf565b82525050565b60006109f48285610989565b601082019150610a0482846109d1565b6014820191508190509392505050565b600082825260208201905092915050565b7f596f7520616c7265616479206f776e207468697320636f757273650000000000600082015250565b6000610a5b601b83610a14565b9150610a6682610a25565b602082019050919050565b60006020820190508181036000830152610a8a81610a4e565b9050919050565b7f4e487b7100000000000000000000000000000000000000000000000000000000600052601160045260246000fd5b6000610acb826106b0565b91507fffffffffffffffffffffffffffffffffffffffffffffffffffffffffffffffff8203610afd57610afc610a91565b5b600182019050919050565b7f596f7520617265206e6f7420746865206f776e65720000000000000000000000600082015250565b6000610b3e601583610a14565b9150610b4982610b08565b602082019050919050565b60006020820190508181036000830152610b6d81610b31565b905091905056fea2646970667358221220ff3a04c78b7270ddf7350977b0fd8b99069bd1495f58ac4a667f4e0edf7f0c4664736f6c634300080e0033",
  "immutableReferences": {},
  "source": "// SPDX-License-Identifier: MIT\npragma solidity >=0.4.22 <0.9.0;\n\ncontract CourseMarketplace {\n    uint256 private totalOwnedCourses;\n    address payable private owner;\n\n    constructor() {\n        setContractOwner(msg.sender);\n    }\n\n    enum State {\n        Purchased,\n        Activated,\n        Dezactivated\n    }\n\n    struct Course {\n        uint256 id; // 32 bytes\n        uint256 price; // 32 bytes\n        bytes32 proof; // 32 bytes\n        address owner; // 20 bytes\n        State state; // 1 byte\n    }\n\n    // 1. mapping of courses hashed to course details\n    mapping(bytes32 => Course) private ownedCourse;\n\n    // 2. mapping of courseId to courseHash\n    mapping(uint256 => bytes32) private ownedCourseHash;\n\n    modifier onlyOwner() {\n        require(owner == msg.sender, \"You are not the owner\");\n        _;\n    }\n\n    function purchaseCourse(bytes16 _courseId, bytes32 _proof)\n        external\n        payable\n    {\n        bytes32 courseHash = keccak256(abi.encodePacked(_courseId, msg.sender));\n        require(!hasCourseOwnership(courseHash), \"You already own this course\");\n        uint256 id = totalOwnedCourses++;\n        ownedCourseHash[id] = courseHash;\n        ownedCourse[courseHash] = Course(\n            id,\n            msg.value,\n            _proof,\n            msg.sender,\n            State.Purchased\n        );\n    }\n\n    function transferOwnership(address _newOwner) external onlyOwner {\n        setContractOwner(_newOwner);\n    }\n\n    function getCourseCount() external view returns (uint256) {\n        return totalOwnedCourses;\n    }\n\n    function getCourseById(uint256 _id) external view returns (bytes32) {\n        return ownedCourseHash[_id];\n    }\n\n    function getCourseByHash(bytes32 _hash)\n        external\n        view\n        returns (Course memory)\n    {\n        return ownedCourse[_hash];\n    }\n\n    function getContractOwner() public view returns (address) {\n        return owner;\n    }\n\n    function setContractOwner(address _newOwner) private {\n        owner = payable(_newOwner);\n    }\n\n    function hasCourseOwnership(bytes32 courseHash)\n        private\n        view\n        returns (bool)\n    {\n        return ownedCourse[courseHash].owner == msg.sender;\n    }\n}\n\n// TEST DATA\n// CourseId: 0x00000000000000000000000000003130\n// Address: 0x5B38Da6a701c568545dCfcB03FcB875f56beddC4s\n// Proof: 0x0000000000000000000000000000313000000000000000000000000000003130\n",
  "sourcePath": "/Users/danielancuta/Development/blockchain/truffle-nextjs-marketplace/market-next/contracts/CourseMarketplace.sol",
  "compiler": {
    "name": "solc",
    "version": "0.8.14+commit.80d49f37.Emscripten.clang"
  },
  "schemaVersion": "3.4.7",
  "updatedAt": "2023-03-04T20:13:30.509Z",
  "devdoc": {
    "kind": "dev",
    "methods": {},
    "version": 1
  },
  "userdoc": {
    "kind": "user",
    "methods": {},
    "version": 1
  }
}